{
    "_format": "hh-sol-artifact-1",
    "contractName": "Authentication",
    "sourceName": "contracts/Authentication.sol",
    "abi": [
        {
            "inputs": [],
            "stateMutability": "nonpayable",
            "type": "constructor"
        },
        {
            "inputs": [],
            "name": "getHash",
            "outputs": [
                {
                    "internalType": "string",
                    "name": "",
                    "type": "string"
                }
            ],
            "stateMutability": "view",
            "type": "function"
        },
        {
            "inputs": [],
            "name": "getUserAddress",
            "outputs": [
                {
                    "internalType": "address",
                    "name": "",
                    "type": "address"
                }
            ],
            "stateMutability": "view",
            "type": "function"
        },
        {
            "inputs": [
                {
                    "internalType": "string",
                    "name": "_hash",
                    "type": "string"
                }
            ],
            "name": "register",
            "outputs": [],
            "stateMutability": "nonpayable",
            "type": "function"
        },
        {
            "inputs": [],
            "name": "totalUsers",
            "outputs": [
                {
                    "internalType": "uint256",
                    "name": "",
                    "type": "uint256"
                }
            ],
            "stateMutability": "view",
            "type": "function"
        }
    ],
    "bytecode": "0x608060405234801561001057600080fd5b5060008081905550610bcc806100276000396000f3fe608060405234801561001057600080fd5b506004361061004c5760003560e01c8063bff1f9e114610051578063d13319c41461006f578063ebc3eee81461008d578063f2c298be146100ab575b600080fd5b6100596100c7565b60405161006691906104ae565b60405180910390f35b6100776100cd565b6040516100849190610559565b60405180910390f35b61009561026f565b6040516100a291906105bc565b60405180910390f35b6100c560048036038101906100c09190610720565b6102d9565b005b60005481565b6060600160003373ffffffffffffffffffffffffffffffffffffffff1673ffffffffffffffffffffffffffffffffffffffff16815260200190815260200160002060010160009054906101000a900473ffffffffffffffffffffffffffffffffffffffff1673ffffffffffffffffffffffffffffffffffffffff163373ffffffffffffffffffffffffffffffffffffffff161461019f576040517f08c379a0000000000000000000000000000000000000000000000000000000008152600401610196906107b5565b60405180910390fd5b600160003373ffffffffffffffffffffffffffffffffffffffff1673ffffffffffffffffffffffffffffffffffffffff16815260200190815260200160002060000180546101ec90610804565b80601f016020809104026020016040519081016040528092919081815260200182805461021890610804565b80156102655780601f1061023a57610100808354040283529160200191610265565b820191906000526020600020905b81548152906001019060200180831161024857829003601f168201915b5050505050905090565b6000600160003373ffffffffffffffffffffffffffffffffffffffff1673ffffffffffffffffffffffffffffffffffffffff16815260200190815260200160002060010160009054906101000a900473ffffffffffffffffffffffffffffffffffffffff16905090565b600073ffffffffffffffffffffffffffffffffffffffff16600160003373ffffffffffffffffffffffffffffffffffffffff1673ffffffffffffffffffffffffffffffffffffffff16815260200190815260200160002060010160009054906101000a900473ffffffffffffffffffffffffffffffffffffffff1673ffffffffffffffffffffffffffffffffffffffff16146103aa576040517f08c379a00000000000000000000000000000000000000000000000000000000081526004016103a190610881565b60405180910390fd5b80600160003373ffffffffffffffffffffffffffffffffffffffff1673ffffffffffffffffffffffffffffffffffffffff16815260200190815260200160002060000190816103f99190610a4d565b5033600160003373ffffffffffffffffffffffffffffffffffffffff1673ffffffffffffffffffffffffffffffffffffffff16815260200190815260200160002060010160006101000a81548173ffffffffffffffffffffffffffffffffffffffff021916908373ffffffffffffffffffffffffffffffffffffffff16021790555060008081548092919061048d90610b4e565b919050555050565b6000819050919050565b6104a881610495565b82525050565b60006020820190506104c3600083018461049f565b92915050565b600081519050919050565b600082825260208201905092915050565b60005b838110156105035780820151818401526020810190506104e8565b60008484015250505050565b6000601f19601f8301169050919050565b600061052b826104c9565b61053581856104d4565b93506105458185602086016104e5565b61054e8161050f565b840191505092915050565b600060208201905081810360008301526105738184610520565b905092915050565b600073ffffffffffffffffffffffffffffffffffffffff82169050919050565b60006105a68261057b565b9050919050565b6105b68161059b565b82525050565b60006020820190506105d160008301846105ad565b92915050565b6000604051905090565b600080fd5b600080fd5b600080fd5b600080fd5b7f4e487b7100000000000000000000000000000000000000000000000000000000600052604160045260246000fd5b61062d8261050f565b810181811067ffffffffffffffff8211171561064c5761064b6105f5565b5b80604052505050565b600061065f6105d7565b905061066b8282610624565b919050565b600067ffffffffffffffff82111561068b5761068a6105f5565b5b6106948261050f565b9050602081019050919050565b82818337600083830152505050565b60006106c36106be84610670565b610655565b9050828152602081018484840111156106df576106de6105f0565b5b6106ea8482856106a1565b509392505050565b600082601f830112610707576107066105eb565b5b81356107178482602086016106b0565b91505092915050565b600060208284031215610736576107356105e1565b5b600082013567ffffffffffffffff811115610754576107536105e6565b5b610760848285016106f2565b91505092915050565b7f594f5520415245204e4f5420414c4c4f57454400000000000000000000000000600082015250565b600061079f6013836104d4565b91506107aa82610769565b602082019050919050565b600060208201905081810360008301526107ce81610792565b9050919050565b7f4e487b7100000000000000000000000000000000000000000000000000000000600052602260045260246000fd5b6000600282049050600182168061081c57607f821691505b60208210810361082f5761082e6107d5565b5b50919050565b7f5573657220697320616c72656164792072656769737465726400000000000000600082015250565b600061086b6019836104d4565b915061087682610835565b602082019050919050565b6000602082019050818103600083015261089a8161085e565b9050919050565b60008190508160005260206000209050919050565b60006020601f8301049050919050565b600082821b905092915050565b6000600883026109037fffffffffffffffffffffffffffffffffffffffffffffffffffffffffffffffff826108c6565b61090d86836108c6565b95508019841693508086168417925050509392505050565b6000819050919050565b600061094a61094561094084610495565b610925565b610495565b9050919050565b6000819050919050565b6109648361092f565b61097861097082610951565b8484546108d3565b825550505050565b600090565b61098d610980565b61099881848461095b565b505050565b5b818110156109bc576109b1600082610985565b60018101905061099e565b5050565b601f821115610a01576109d2816108a1565b6109db846108b6565b810160208510156109ea578190505b6109fe6109f6856108b6565b83018261099d565b50505b505050565b600082821c905092915050565b6000610a2460001984600802610a06565b1980831691505092915050565b6000610a3d8383610a13565b9150826002028217905092915050565b610a56826104c9565b67ffffffffffffffff811115610a6f57610a6e6105f5565b5b610a798254610804565b610a848282856109c0565b600060209050601f831160018114610ab75760008415610aa5578287015190505b610aaf8582610a31565b865550610b17565b601f198416610ac5866108a1565b60005b82811015610aed57848901518255600182019150602085019450602081019050610ac8565b86831015610b0a5784890151610b06601f891682610a13565b8355505b6001600288020188555050505b505050505050565b7f4e487b7100000000000000000000000000000000000000000000000000000000600052601160045260246000fd5b6000610b5982610495565b91507fffffffffffffffffffffffffffffffffffffffffffffffffffffffffffffffff8203610b8b57610b8a610b1f565b5b60018201905091905056fea26469706673582212204c5053f790f9bcb5d6f3fc460ce95db32f028f5d17bad9ebc2c522d68baa195d64736f6c63430008110033",
    "linkReferences": {},
    "deployedLinkReferences": {}
}