{
  "_format": "hh-sol-artifact-1",
  "contractName": "RealEstate",
  "sourceName": "contracts/RealEstate.sol",
  "abi": [
    {
      "inputs": [],
      "stateMutability": "nonpayable",
      "type": "constructor"
    },
    {
      "anonymous": false,
      "inputs": [
        {
          "indexed": true,
          "internalType": "address",
          "name": "owner",
          "type": "address"
        },
        {
          "indexed": true,
          "internalType": "address",
          "name": "approved",
          "type": "address"
        },
        {
          "indexed": true,
          "internalType": "uint256",
          "name": "tokenId",
          "type": "uint256"
        }
      ],
      "name": "Approval",
      "type": "event"
    },
    {
      "anonymous": false,
      "inputs": [
        {
          "indexed": true,
          "internalType": "address",
          "name": "owner",
          "type": "address"
        },
        {
          "indexed": true,
          "internalType": "address",
          "name": "operator",
          "type": "address"
        },
        {
          "indexed": false,
          "internalType": "bool",
          "name": "approved",
          "type": "bool"
        }
      ],
      "name": "ApprovalForAll",
      "type": "event"
    },
    {
      "anonymous": false,
      "inputs": [
        {
          "indexed": true,
          "internalType": "address",
          "name": "from",
          "type": "address"
        },
        {
          "indexed": true,
          "internalType": "address",
          "name": "to",
          "type": "address"
        },
        {
          "indexed": true,
          "internalType": "uint256",
          "name": "tokenId",
          "type": "uint256"
        }
      ],
      "name": "Transfer",
      "type": "event"
    },
    {
      "inputs": [
        {
          "internalType": "uint256",
          "name": "",
          "type": "uint256"
        }
      ],
      "name": "_requests",
      "outputs": [
        {
          "internalType": "address",
          "name": "buyer",
          "type": "address"
        },
        {
          "internalType": "bool",
          "name": "hasRequested",
          "type": "bool"
        }
      ],
      "stateMutability": "view",
      "type": "function"
    },
    {
      "inputs": [
        {
          "internalType": "address",
          "name": "to",
          "type": "address"
        },
        {
          "internalType": "uint256",
          "name": "tokenId",
          "type": "uint256"
        }
      ],
      "name": "approve",
      "outputs": [],
      "stateMutability": "nonpayable",
      "type": "function"
    },
    {
      "inputs": [
        {
          "internalType": "address",
          "name": "owner",
          "type": "address"
        }
      ],
      "name": "balanceOf",
      "outputs": [
        {
          "internalType": "uint256",
          "name": "",
          "type": "uint256"
        }
      ],
      "stateMutability": "view",
      "type": "function"
    },
    {
      "inputs": [
        {
          "internalType": "uint256",
          "name": "tokenId",
          "type": "uint256"
        }
      ],
      "name": "getApproved",
      "outputs": [
        {
          "internalType": "address",
          "name": "",
          "type": "address"
        }
      ],
      "stateMutability": "view",
      "type": "function"
    },
    {
      "inputs": [
        {
          "internalType": "uint256",
          "name": "tokenId",
          "type": "uint256"
        }
      ],
      "name": "getRequestAddress",
      "outputs": [
        {
          "internalType": "address",
          "name": "",
          "type": "address"
        }
      ],
      "stateMutability": "view",
      "type": "function"
    },
    {
      "inputs": [
        {
          "internalType": "uint256",
          "name": "tokenId",
          "type": "uint256"
        }
      ],
      "name": "hasRequested",
      "outputs": [
        {
          "internalType": "bool",
          "name": "",
          "type": "bool"
        }
      ],
      "stateMutability": "view",
      "type": "function"
    },
    {
      "inputs": [
        {
          "internalType": "address",
          "name": "owner",
          "type": "address"
        },
        {
          "internalType": "address",
          "name": "operator",
          "type": "address"
        }
      ],
      "name": "isApprovedForAll",
      "outputs": [
        {
          "internalType": "bool",
          "name": "",
          "type": "bool"
        }
      ],
      "stateMutability": "view",
      "type": "function"
    },
    {
      "inputs": [
        {
          "internalType": "uint256",
          "name": "tokenId",
          "type": "uint256"
        }
      ],
      "name": "isTokenValid",
      "outputs": [
        {
          "internalType": "bool",
          "name": "",
          "type": "bool"
        }
      ],
      "stateMutability": "view",
      "type": "function"
    },
    {
      "inputs": [
        {
          "internalType": "uint256",
          "name": "tokenId",
          "type": "uint256"
        }
      ],
      "name": "makeRequest",
      "outputs": [],
      "stateMutability": "nonpayable",
      "type": "function"
    },
    {
      "inputs": [
        {
          "internalType": "string",
          "name": "tokenURI",
          "type": "string"
        }
      ],
      "name": "mint",
      "outputs": [
        {
          "internalType": "uint256",
          "name": "",
          "type": "uint256"
        }
      ],
      "stateMutability": "nonpayable",
      "type": "function"
    },
    {
      "inputs": [],
      "name": "name",
      "outputs": [
        {
          "internalType": "string",
          "name": "",
          "type": "string"
        }
      ],
      "stateMutability": "view",
      "type": "function"
    },
    {
      "inputs": [
        {
          "internalType": "uint256",
          "name": "tokenId",
          "type": "uint256"
        }
      ],
      "name": "ownerOf",
      "outputs": [
        {
          "internalType": "address",
          "name": "",
          "type": "address"
        }
      ],
      "stateMutability": "view",
      "type": "function"
    },
    {
      "inputs": [
        {
          "internalType": "uint256",
          "name": "tokenId",
          "type": "uint256"
        }
      ],
      "name": "removePropertyFromSale",
      "outputs": [],
      "stateMutability": "nonpayable",
      "type": "function"
    },
    {
      "inputs": [
        {
          "internalType": "address",
          "name": "from",
          "type": "address"
        },
        {
          "internalType": "address",
          "name": "to",
          "type": "address"
        },
        {
          "internalType": "uint256",
          "name": "tokenId",
          "type": "uint256"
        }
      ],
      "name": "safeTransferFrom",
      "outputs": [],
      "stateMutability": "nonpayable",
      "type": "function"
    },
    {
      "inputs": [
        {
          "internalType": "address",
          "name": "from",
          "type": "address"
        },
        {
          "internalType": "address",
          "name": "to",
          "type": "address"
        },
        {
          "internalType": "uint256",
          "name": "tokenId",
          "type": "uint256"
        },
        {
          "internalType": "bytes",
          "name": "data",
          "type": "bytes"
        }
      ],
      "name": "safeTransferFrom",
      "outputs": [],
      "stateMutability": "nonpayable",
      "type": "function"
    },
    {
      "inputs": [
        {
          "internalType": "address",
          "name": "operator",
          "type": "address"
        },
        {
          "internalType": "bool",
          "name": "approved",
          "type": "bool"
        }
      ],
      "name": "setApprovalForAll",
      "outputs": [],
      "stateMutability": "nonpayable",
      "type": "function"
    },
    {
      "inputs": [
        {
          "internalType": "bytes4",
          "name": "interfaceId",
          "type": "bytes4"
        }
      ],
      "name": "supportsInterface",
      "outputs": [
        {
          "internalType": "bool",
          "name": "",
          "type": "bool"
        }
      ],
      "stateMutability": "view",
      "type": "function"
    },
    {
      "inputs": [],
      "name": "symbol",
      "outputs": [
        {
          "internalType": "string",
          "name": "",
          "type": "string"
        }
      ],
      "stateMutability": "view",
      "type": "function"
    },
    {
      "inputs": [
        {
          "internalType": "uint256",
          "name": "tokenId",
          "type": "uint256"
        }
      ],
      "name": "tokenURI",
      "outputs": [
        {
          "internalType": "string",
          "name": "",
          "type": "string"
        }
      ],
      "stateMutability": "view",
      "type": "function"
    },
    {
      "inputs": [],
      "name": "totalSupply",
      "outputs": [
        {
          "internalType": "uint256",
          "name": "",
          "type": "uint256"
        }
      ],
      "stateMutability": "view",
      "type": "function"
    },
    {
      "inputs": [
        {
          "internalType": "address",
          "name": "from",
          "type": "address"
        },
        {
          "internalType": "address",
          "name": "to",
          "type": "address"
        },
        {
          "internalType": "uint256",
          "name": "tokenId",
          "type": "uint256"
        }
      ],
      "name": "transferFrom",
      "outputs": [],
      "stateMutability": "nonpayable",
      "type": "function"
    },
    {
      "inputs": [
        {
          "internalType": "uint256",
          "name": "tokenId",
          "type": "uint256"
        }
      ],
      "name": "unmintProperty",
      "outputs": [],
      "stateMutability": "nonpayable",
      "type": "function"
    }
  ],
  "bytecode": "0x60806040523480156200001157600080fd5b506040518060400160405280600b81526020017f5265616c204573746174650000000000000000000000000000000000000000008152506040518060400160405280600481526020017f5245414c0000000000000000000000000000000000000000000000000000000081525081600090816200008f919062000324565b508060019081620000a1919062000324565b5050506200040b565b600081519050919050565b7f4e487b7100000000000000000000000000000000000000000000000000000000600052604160045260246000fd5b7f4e487b7100000000000000000000000000000000000000000000000000000000600052602260045260246000fd5b600060028204905060018216806200012c57607f821691505b602082108103620001425762000141620000e4565b5b50919050565b60008190508160005260206000209050919050565b60006020601f8301049050919050565b600082821b905092915050565b600060088302620001ac7fffffffffffffffffffffffffffffffffffffffffffffffffffffffffffffffff826200016d565b620001b886836200016d565b95508019841693508086168417925050509392505050565b6000819050919050565b6000819050919050565b600062000205620001ff620001f984620001d0565b620001da565b620001d0565b9050919050565b6000819050919050565b6200022183620001e4565b6200023962000230826200020c565b8484546200017a565b825550505050565b600090565b6200025062000241565b6200025d81848462000216565b505050565b5b8181101562000285576200027960008262000246565b60018101905062000263565b5050565b601f821115620002d4576200029e8162000148565b620002a9846200015d565b81016020851015620002b9578190505b620002d1620002c8856200015d565b83018262000262565b50505b505050565b600082821c905092915050565b6000620002f960001984600802620002d9565b1980831691505092915050565b6000620003148383620002e6565b9150826002028217905092915050565b6200032f82620000aa565b67ffffffffffffffff8111156200034b576200034a620000b5565b5b62000357825462000113565b6200036482828562000289565b600060209050601f8311600181146200039c576000841562000387578287015190505b62000393858262000306565b86555062000403565b601f198416620003ac8662000148565b60005b82811015620003d657848901518255600182019150602085019450602081019050620003af565b86831015620003f65784890151620003f2601f891682620002e6565b8355505b6001600288020188555050505b505050505050565b61342c806200041b6000396000f3fe608060405234801561001057600080fd5b50600436106101425760003560e01c80638cd0692d116100b8578063c87b56dd1161007c578063c87b56dd14610386578063c92243d8146103b6578063cf341291146103e6578063d85d3d2714610402578063e74543b514610432578063e985e9c51461046257610142565b80638cd0692d146102cf57806395d89b41146102ff578063a22cb4651461031d578063b88d4fde14610339578063bff60c0f1461035557610142565b80631f476a761161010a5780631f476a76146101ff57806323b872dd1461021b5780633b40075d1461023757806342842e0e146102535780636352211e1461026f57806370a082311461029f57610142565b806301ffc9a71461014757806306fdde0314610177578063081812fc14610195578063095ea7b3146101c557806318160ddd146101e1575b600080fd5b610161600480360381019061015c9190612109565b610492565b60405161016e9190612151565b60405180910390f35b61017f610574565b60405161018c91906121fc565b60405180910390f35b6101af60048036038101906101aa9190612254565b610606565b6040516101bc91906122c2565b60405180910390f35b6101df60048036038101906101da9190612309565b61064c565b005b6101e9610763565b6040516101f69190612358565b60405180910390f35b61021960048036038101906102149190612254565b610774565b005b61023560048036038101906102309190612373565b6108b0565b005b610251600480360381019061024c9190612254565b610910565b005b61026d60048036038101906102689190612373565b610a6a565b005b61028960048036038101906102849190612254565b610a8a565b60405161029691906122c2565b60405180910390f35b6102b960048036038101906102b491906123c6565b610b10565b6040516102c69190612358565b60405180910390f35b6102e960048036038101906102e49190612254565b610bc7565b6040516102f69190612151565b60405180910390f35b610307610bf4565b60405161031491906121fc565b60405180910390f35b6103376004803603810190610332919061241f565b610c86565b005b610353600480360381019061034e9190612594565b610c9c565b005b61036f600480360381019061036a9190612254565b610cfe565b60405161037d929190612617565b60405180910390f35b6103a0600480360381019061039b9190612254565b610d4f565b6040516103ad91906121fc565b60405180910390f35b6103d060048036038101906103cb9190612254565b610e61565b6040516103dd9190612151565b60405180910390f35b61040060048036038101906103fb9190612254565b610e73565b005b61041c600480360381019061041791906126e1565b610f46565b6040516104299190612358565b60405180910390f35b61044c60048036038101906104479190612254565b610f7d565b60405161045991906122c2565b60405180910390f35b61047c6004803603810190610477919061272a565b610fbd565b6040516104899190612151565b60405180910390f35b60007f80ac58cd000000000000000000000000000000000000000000000000000000007bffffffffffffffffffffffffffffffffffffffffffffffffffffffff1916827bffffffffffffffffffffffffffffffffffffffffffffffffffffffff1916148061055d57507f5b5e139f000000000000000000000000000000000000000000000000000000007bffffffffffffffffffffffffffffffffffffffffffffffffffffffff1916827bffffffffffffffffffffffffffffffffffffffffffffffffffffffff1916145b8061056d575061056c82611051565b5b9050919050565b60606000805461058390612799565b80601f01602080910402602001604051908101604052809291908181526020018280546105af90612799565b80156105fc5780601f106105d1576101008083540402835291602001916105fc565b820191906000526020600020905b8154815290600101906020018083116105df57829003601f168201915b5050505050905090565b6000610611826110bb565b6004600083815260200190815260200160002060009054906101000a900473ffffffffffffffffffffffffffffffffffffffff169050919050565b600061065782610a8a565b90508073ffffffffffffffffffffffffffffffffffffffff168373ffffffffffffffffffffffffffffffffffffffff16036106c7576040517f08c379a00000000000000000000000000000000000000000000000000000000081526004016106be9061283c565b60405180910390fd5b8073ffffffffffffffffffffffffffffffffffffffff166106e6611106565b73ffffffffffffffffffffffffffffffffffffffff16148061071557506107148161070f611106565b610fbd565b5b610754576040517f08c379a000000000000000000000000000000000000000000000000000000000815260040161074b906128ce565b60405180910390fd5b61075e838361110e565b505050565b600061076f60076111c7565b905090565b600061077f82610a8a565b90503373ffffffffffffffffffffffffffffffffffffffff168173ffffffffffffffffffffffffffffffffffffffff16148061081c57506008600083815260200190815260200160002060000160009054906101000a900473ffffffffffffffffffffffffffffffffffffffff1673ffffffffffffffffffffffffffffffffffffffff163373ffffffffffffffffffffffffffffffffffffffff16145b61085b576040517f08c379a000000000000000000000000000000000000000000000000000000000815260040161085290612960565b60405180910390fd5b60086000838152602001908152602001600020600080820160006101000a81549073ffffffffffffffffffffffffffffffffffffffff02191690556000820160146101000a81549060ff021916905550505050565b6108c16108bb611106565b826111d5565b610900576040517f08c379a00000000000000000000000000000000000000000000000000000000081526004016108f7906129f2565b60405180910390fd5b61090b83838361126a565b505050565b61091981611563565b610958576040517f08c379a000000000000000000000000000000000000000000000000000000000815260040161094f90612a5e565b60405180910390fd5b6008600082815260200190815260200160002060000160149054906101000a900460ff16156109bc576040517f08c379a00000000000000000000000000000000000000000000000000000000081526004016109b390612aca565b60405180910390fd5b60405180604001604052803373ffffffffffffffffffffffffffffffffffffffff168152602001600115158152506008600083815260200190815260200160002060008201518160000160006101000a81548173ffffffffffffffffffffffffffffffffffffffff021916908373ffffffffffffffffffffffffffffffffffffffff16021790555060208201518160000160146101000a81548160ff02191690831515021790555090505050565b610a8583838360405180602001604052806000815250610c9c565b505050565b600080610a96836115a4565b9050600073ffffffffffffffffffffffffffffffffffffffff168173ffffffffffffffffffffffffffffffffffffffff1603610b07576040517f08c379a0000000000000000000000000000000000000000000000000000000008152600401610afe90612b36565b60405180910390fd5b80915050919050565b60008073ffffffffffffffffffffffffffffffffffffffff168273ffffffffffffffffffffffffffffffffffffffff1603610b80576040517f08c379a0000000000000000000000000000000000000000000000000000000008152600401610b7790612bc8565b60405180910390fd5b600360008373ffffffffffffffffffffffffffffffffffffffff1673ffffffffffffffffffffffffffffffffffffffff168152602001908152602001600020549050919050565b60006008600083815260200190815260200160002060000160149054906101000a900460ff169050919050565b606060018054610c0390612799565b80601f0160208091040260200160405190810160405280929190818152602001828054610c2f90612799565b8015610c7c5780601f10610c5157610100808354040283529160200191610c7c565b820191906000526020600020905b815481529060010190602001808311610c5f57829003601f168201915b5050505050905090565b610c98610c91611106565b83836115e1565b5050565b610cad610ca7611106565b836111d5565b610cec576040517f08c379a0000000000000000000000000000000000000000000000000000000008152600401610ce3906129f2565b60405180910390fd5b610cf88484848461174d565b50505050565b60086020528060005260406000206000915090508060000160009054906101000a900473ffffffffffffffffffffffffffffffffffffffff16908060000160149054906101000a900460ff16905082565b6060610d5a826110bb565b6000600660008481526020019081526020016000208054610d7a90612799565b80601f0160208091040260200160405190810160405280929190818152602001828054610da690612799565b8015610df35780601f10610dc857610100808354040283529160200191610df3565b820191906000526020600020905b815481529060010190602001808311610dd657829003601f168201915b505050505090506000610e046117a9565b90506000815103610e19578192505050610e5c565b600082511115610e4e578082604051602001610e36929190612c24565b60405160208183030381529060405292505050610e5c565b610e57846117c0565b925050505b919050565b6000610e6c82611563565b9050919050565b3373ffffffffffffffffffffffffffffffffffffffff16610e9382610a8a565b73ffffffffffffffffffffffffffffffffffffffff1614610ee9576040517f08c379a0000000000000000000000000000000000000000000000000000000008152600401610ee090612cba565b60405180910390fd5b60086000828152602001908152602001600020600080820160006101000a81549073ffffffffffffffffffffffffffffffffffffffff02191690556000820160146101000a81549060ff02191690555050610f4381611828565b50565b6000610f52600761187b565b6000610f5e60076111c7565b9050610f6a3382611891565b610f748184611aae565b80915050919050565b60006008600083815260200190815260200160002060000160009054906101000a900473ffffffffffffffffffffffffffffffffffffffff169050919050565b6000600560008473ffffffffffffffffffffffffffffffffffffffff1673ffffffffffffffffffffffffffffffffffffffff16815260200190815260200160002060008373ffffffffffffffffffffffffffffffffffffffff1673ffffffffffffffffffffffffffffffffffffffff16815260200190815260200160002060009054906101000a900460ff16905092915050565b60007f01ffc9a7000000000000000000000000000000000000000000000000000000007bffffffffffffffffffffffffffffffffffffffffffffffffffffffff1916827bffffffffffffffffffffffffffffffffffffffffffffffffffffffff1916149050919050565b6110c481611563565b611103576040517f08c379a00000000000000000000000000000000000000000000000000000000081526004016110fa90612b36565b60405180910390fd5b50565b600033905090565b816004600083815260200190815260200160002060006101000a81548173ffffffffffffffffffffffffffffffffffffffff021916908373ffffffffffffffffffffffffffffffffffffffff160217905550808273ffffffffffffffffffffffffffffffffffffffff1661118183610a8a565b73ffffffffffffffffffffffffffffffffffffffff167f8c5be1e5ebec7d5bd14f71427d1e84f3dd0314c0f7b2291e5b200ac8c7c3b92560405160405180910390a45050565b600081600001549050919050565b6000806111e183610a8a565b90508073ffffffffffffffffffffffffffffffffffffffff168473ffffffffffffffffffffffffffffffffffffffff16148061122357506112228185610fbd565b5b8061126157508373ffffffffffffffffffffffffffffffffffffffff1661124984610606565b73ffffffffffffffffffffffffffffffffffffffff16145b91505092915050565b8273ffffffffffffffffffffffffffffffffffffffff1661128a82610a8a565b73ffffffffffffffffffffffffffffffffffffffff16146112e0576040517f08c379a00000000000000000000000000000000000000000000000000000000081526004016112d790612d4c565b60405180910390fd5b600073ffffffffffffffffffffffffffffffffffffffff168273ffffffffffffffffffffffffffffffffffffffff160361134f576040517f08c379a000000000000000000000000000000000000000000000000000000000815260040161134690612dde565b60405180910390fd5b61135c8383836001611b1b565b8273ffffffffffffffffffffffffffffffffffffffff1661137c82610a8a565b73ffffffffffffffffffffffffffffffffffffffff16146113d2576040517f08c379a00000000000000000000000000000000000000000000000000000000081526004016113c990612d4c565b60405180910390fd5b6004600082815260200190815260200160002060006101000a81549073ffffffffffffffffffffffffffffffffffffffff02191690556001600360008573ffffffffffffffffffffffffffffffffffffffff1673ffffffffffffffffffffffffffffffffffffffff168152602001908152602001600020600082825403925050819055506001600360008473ffffffffffffffffffffffffffffffffffffffff1673ffffffffffffffffffffffffffffffffffffffff16815260200190815260200160002060008282540192505081905550816002600083815260200190815260200160002060006101000a81548173ffffffffffffffffffffffffffffffffffffffff021916908373ffffffffffffffffffffffffffffffffffffffff160217905550808273ffffffffffffffffffffffffffffffffffffffff168473ffffffffffffffffffffffffffffffffffffffff167fddf252ad1be2c89b69c2b068fc378daa952ba7f163c4a11628f55a4df523b3ef60405160405180910390a461155e8383836001611b21565b505050565b60008073ffffffffffffffffffffffffffffffffffffffff16611585836115a4565b73ffffffffffffffffffffffffffffffffffffffff1614159050919050565b60006002600083815260200190815260200160002060009054906101000a900473ffffffffffffffffffffffffffffffffffffffff169050919050565b8173ffffffffffffffffffffffffffffffffffffffff168373ffffffffffffffffffffffffffffffffffffffff160361164f576040517f08c379a000000000000000000000000000000000000000000000000000000000815260040161164690612e4a565b60405180910390fd5b80600560008573ffffffffffffffffffffffffffffffffffffffff1673ffffffffffffffffffffffffffffffffffffffff16815260200190815260200160002060008473ffffffffffffffffffffffffffffffffffffffff1673ffffffffffffffffffffffffffffffffffffffff16815260200190815260200160002060006101000a81548160ff0219169083151502179055508173ffffffffffffffffffffffffffffffffffffffff168373ffffffffffffffffffffffffffffffffffffffff167f17307eab39ab6107e8899845ad3d59bd9653f200f220920489ca2b5937696c31836040516117409190612151565b60405180910390a3505050565b61175884848461126a565b61176484848484611b27565b6117a3576040517f08c379a000000000000000000000000000000000000000000000000000000000815260040161179a90612edc565b60405180910390fd5b50505050565b606060405180602001604052806000815250905090565b60606117cb826110bb565b60006117d56117a9565b905060008151116117f55760405180602001604052806000815250611820565b806117ff84611cae565b604051602001611810929190612c24565b6040516020818303038152906040525b915050919050565b61183181611d7c565b600060066000838152602001908152602001600020805461185190612799565b905014611878576006600082815260200190815260200160002060006118779190612040565b5b50565b6001816000016000828254019250508190555050565b600073ffffffffffffffffffffffffffffffffffffffff168273ffffffffffffffffffffffffffffffffffffffff1603611900576040517f08c379a00000000000000000000000000000000000000000000000000000000081526004016118f790612f48565b60405180910390fd5b61190981611563565b15611949576040517f08c379a000000000000000000000000000000000000000000000000000000000815260040161194090612fb4565b60405180910390fd5b611957600083836001611b1b565b61196081611563565b156119a0576040517f08c379a000000000000000000000000000000000000000000000000000000000815260040161199790612fb4565b60405180910390fd5b6001600360008473ffffffffffffffffffffffffffffffffffffffff1673ffffffffffffffffffffffffffffffffffffffff16815260200190815260200160002060008282540192505081905550816002600083815260200190815260200160002060006101000a81548173ffffffffffffffffffffffffffffffffffffffff021916908373ffffffffffffffffffffffffffffffffffffffff160217905550808273ffffffffffffffffffffffffffffffffffffffff16600073ffffffffffffffffffffffffffffffffffffffff167fddf252ad1be2c89b69c2b068fc378daa952ba7f163c4a11628f55a4df523b3ef60405160405180910390a4611aaa600083836001611b21565b5050565b611ab782611563565b611af6576040517f08c379a0000000000000000000000000000000000000000000000000000000008152600401611aed90613046565b60405180910390fd5b80600660008481526020019081526020016000209081611b169190613212565b505050565b50505050565b50505050565b6000611b488473ffffffffffffffffffffffffffffffffffffffff16611eca565b15611ca1578373ffffffffffffffffffffffffffffffffffffffff1663150b7a02611b71611106565b8786866040518563ffffffff1660e01b8152600401611b939493929190613339565b6020604051808303816000875af1925050508015611bcf57506040513d601f19601f82011682018060405250810190611bcc919061339a565b60015b611c51573d8060008114611bff576040519150601f19603f3d011682016040523d82523d6000602084013e611c04565b606091505b506000815103611c49576040517f08c379a0000000000000000000000000000000000000000000000000000000008152600401611c4090612edc565b60405180910390fd5b805181602001fd5b63150b7a0260e01b7bffffffffffffffffffffffffffffffffffffffffffffffffffffffff1916817bffffffffffffffffffffffffffffffffffffffffffffffffffffffff191614915050611ca6565b600190505b949350505050565b606060006001611cbd84611eed565b01905060008167ffffffffffffffff811115611cdc57611cdb612469565b5b6040519080825280601f01601f191660200182016040528015611d0e5781602001600182028036833780820191505090505b509050600082602001820190505b600115611d71578080600190039150507f3031323334353637383961626364656600000000000000000000000000000000600a86061a8153600a8581611d6557611d646133c7565b5b04945060008503611d1c575b819350505050919050565b6000611d8782610a8a565b9050611d97816000846001611b1b565b611da082610a8a565b90506004600083815260200190815260200160002060006101000a81549073ffffffffffffffffffffffffffffffffffffffff02191690556001600360008373ffffffffffffffffffffffffffffffffffffffff1673ffffffffffffffffffffffffffffffffffffffff168152602001908152602001600020600082825403925050819055506002600083815260200190815260200160002060006101000a81549073ffffffffffffffffffffffffffffffffffffffff021916905581600073ffffffffffffffffffffffffffffffffffffffff168273ffffffffffffffffffffffffffffffffffffffff167fddf252ad1be2c89b69c2b068fc378daa952ba7f163c4a11628f55a4df523b3ef60405160405180910390a4611ec6816000846001611b21565b5050565b6000808273ffffffffffffffffffffffffffffffffffffffff163b119050919050565b600080600090507a184f03e93ff9f4daa797ed6e38ed64bf6a1f0100000000000000008310611f4b577a184f03e93ff9f4daa797ed6e38ed64bf6a1f0100000000000000008381611f4157611f406133c7565b5b0492506040810190505b6d04ee2d6d415b85acef81000000008310611f88576d04ee2d6d415b85acef81000000008381611f7e57611f7d6133c7565b5b0492506020810190505b662386f26fc100008310611fb757662386f26fc100008381611fad57611fac6133c7565b5b0492506010810190505b6305f5e1008310611fe0576305f5e1008381611fd657611fd56133c7565b5b0492506008810190505b6127108310612005576127108381611ffb57611ffa6133c7565b5b0492506004810190505b60648310612028576064838161201e5761201d6133c7565b5b0492506002810190505b600a8310612037576001810190505b80915050919050565b50805461204c90612799565b6000825580601f1061205e575061207d565b601f01602090049060005260206000209081019061207c9190612080565b5b50565b5b80821115612099576000816000905550600101612081565b5090565b6000604051905090565b600080fd5b600080fd5b60007fffffffff0000000000000000000000000000000000000000000000000000000082169050919050565b6120e6816120b1565b81146120f157600080fd5b50565b600081359050612103816120dd565b92915050565b60006020828403121561211f5761211e6120a7565b5b600061212d848285016120f4565b91505092915050565b60008115159050919050565b61214b81612136565b82525050565b60006020820190506121666000830184612142565b92915050565b600081519050919050565b600082825260208201905092915050565b60005b838110156121a657808201518184015260208101905061218b565b60008484015250505050565b6000601f19601f8301169050919050565b60006121ce8261216c565b6121d88185612177565b93506121e8818560208601612188565b6121f1816121b2565b840191505092915050565b6000602082019050818103600083015261221681846121c3565b905092915050565b6000819050919050565b6122318161221e565b811461223c57600080fd5b50565b60008135905061224e81612228565b92915050565b60006020828403121561226a576122696120a7565b5b60006122788482850161223f565b91505092915050565b600073ffffffffffffffffffffffffffffffffffffffff82169050919050565b60006122ac82612281565b9050919050565b6122bc816122a1565b82525050565b60006020820190506122d760008301846122b3565b92915050565b6122e6816122a1565b81146122f157600080fd5b50565b600081359050612303816122dd565b92915050565b600080604083850312156123205761231f6120a7565b5b600061232e858286016122f4565b925050602061233f8582860161223f565b9150509250929050565b6123528161221e565b82525050565b600060208201905061236d6000830184612349565b92915050565b60008060006060848603121561238c5761238b6120a7565b5b600061239a868287016122f4565b93505060206123ab868287016122f4565b92505060406123bc8682870161223f565b9150509250925092565b6000602082840312156123dc576123db6120a7565b5b60006123ea848285016122f4565b91505092915050565b6123fc81612136565b811461240757600080fd5b50565b600081359050612419816123f3565b92915050565b60008060408385031215612436576124356120a7565b5b6000612444858286016122f4565b92505060206124558582860161240a565b9150509250929050565b600080fd5b600080fd5b7f4e487b7100000000000000000000000000000000000000000000000000000000600052604160045260246000fd5b6124a1826121b2565b810181811067ffffffffffffffff821117156124c0576124bf612469565b5b80604052505050565b60006124d361209d565b90506124df8282612498565b919050565b600067ffffffffffffffff8211156124ff576124fe612469565b5b612508826121b2565b9050602081019050919050565b82818337600083830152505050565b6000612537612532846124e4565b6124c9565b90508281526020810184848401111561255357612552612464565b5b61255e848285612515565b509392505050565b600082601f83011261257b5761257a61245f565b5b813561258b848260208601612524565b91505092915050565b600080600080608085870312156125ae576125ad6120a7565b5b60006125bc878288016122f4565b94505060206125cd878288016122f4565b93505060406125de8782880161223f565b925050606085013567ffffffffffffffff8111156125ff576125fe6120ac565b5b61260b87828801612566565b91505092959194509250565b600060408201905061262c60008301856122b3565b6126396020830184612142565b9392505050565b600067ffffffffffffffff82111561265b5761265a612469565b5b612664826121b2565b9050602081019050919050565b600061268461267f84612640565b6124c9565b9050828152602081018484840111156126a05761269f612464565b5b6126ab848285612515565b509392505050565b600082601f8301126126c8576126c761245f565b5b81356126d8848260208601612671565b91505092915050565b6000602082840312156126f7576126f66120a7565b5b600082013567ffffffffffffffff811115612715576127146120ac565b5b612721848285016126b3565b91505092915050565b60008060408385031215612741576127406120a7565b5b600061274f858286016122f4565b9250506020612760858286016122f4565b9150509250929050565b7f4e487b7100000000000000000000000000000000000000000000000000000000600052602260045260246000fd5b600060028204905060018216806127b157607f821691505b6020821081036127c4576127c361276a565b5b50919050565b7f4552433732313a20617070726f76616c20746f2063757272656e74206f776e6560008201527f7200000000000000000000000000000000000000000000000000000000000000602082015250565b6000612826602183612177565b9150612831826127ca565b604082019050919050565b6000602082019050818103600083015261285581612819565b9050919050565b7f4552433732313a20617070726f76652063616c6c6572206973206e6f7420746f60008201527f6b656e206f776e6572206f7220617070726f76656420666f7220616c6c000000602082015250565b60006128b8603d83612177565b91506128c38261285c565b604082019050919050565b600060208201905081810360008301526128e7816128ab565b9050919050565b7f596f7520617265206e6f7420617574686f72697a656420746f2072656d6f766560008201527f207468652070726f70657274792066726f6d2073616c652e0000000000000000602082015250565b600061294a603883612177565b9150612955826128ee565b604082019050919050565b600060208201905081810360008301526129798161293d565b9050919050565b7f4552433732313a2063616c6c6572206973206e6f7420746f6b656e206f776e6560008201527f72206f7220617070726f76656400000000000000000000000000000000000000602082015250565b60006129dc602d83612177565b91506129e782612980565b604082019050919050565b60006020820190508181036000830152612a0b816129cf565b9050919050565b7f546f6b656e20646f6573206e6f74206578697374000000000000000000000000600082015250565b6000612a48601483612177565b9150612a5382612a12565b602082019050919050565b60006020820190508181036000830152612a7781612a3b565b9050919050565b7f5265717565737420616c7265616479206d616465000000000000000000000000600082015250565b6000612ab4601483612177565b9150612abf82612a7e565b602082019050919050565b60006020820190508181036000830152612ae381612aa7565b9050919050565b7f4552433732313a20696e76616c696420746f6b656e2049440000000000000000600082015250565b6000612b20601883612177565b9150612b2b82612aea565b602082019050919050565b60006020820190508181036000830152612b4f81612b13565b9050919050565b7f4552433732313a2061646472657373207a65726f206973206e6f74206120766160008201527f6c6964206f776e65720000000000000000000000000000000000000000000000602082015250565b6000612bb2602983612177565b9150612bbd82612b56565b604082019050919050565b60006020820190508181036000830152612be181612ba5565b9050919050565b600081905092915050565b6000612bfe8261216c565b612c088185612be8565b9350612c18818560208601612188565b80840191505092915050565b6000612c308285612bf3565b9150612c3c8284612bf3565b91508190509392505050565b7f4f6e6c7920746865206f776e65722063616e20756e6d696e742074686520707260008201527f6f70657274792e00000000000000000000000000000000000000000000000000602082015250565b6000612ca4602783612177565b9150612caf82612c48565b604082019050919050565b60006020820190508181036000830152612cd381612c97565b9050919050565b7f4552433732313a207472616e736665722066726f6d20696e636f72726563742060008201527f6f776e6572000000000000000000000000000000000000000000000000000000602082015250565b6000612d36602583612177565b9150612d4182612cda565b604082019050919050565b60006020820190508181036000830152612d6581612d29565b9050919050565b7f4552433732313a207472616e7366657220746f20746865207a65726f2061646460008201527f7265737300000000000000000000000000000000000000000000000000000000602082015250565b6000612dc8602483612177565b9150612dd382612d6c565b604082019050919050565b60006020820190508181036000830152612df781612dbb565b9050919050565b7f4552433732313a20617070726f766520746f2063616c6c657200000000000000600082015250565b6000612e34601983612177565b9150612e3f82612dfe565b602082019050919050565b60006020820190508181036000830152612e6381612e27565b9050919050565b7f4552433732313a207472616e7366657220746f206e6f6e20455243373231526560008201527f63656976657220696d706c656d656e7465720000000000000000000000000000602082015250565b6000612ec6603283612177565b9150612ed182612e6a565b604082019050919050565b60006020820190508181036000830152612ef581612eb9565b9050919050565b7f4552433732313a206d696e7420746f20746865207a65726f2061646472657373600082015250565b6000612f32602083612177565b9150612f3d82612efc565b602082019050919050565b60006020820190508181036000830152612f6181612f25565b9050919050565b7f4552433732313a20746f6b656e20616c7265616479206d696e74656400000000600082015250565b6000612f9e601c83612177565b9150612fa982612f68565b602082019050919050565b60006020820190508181036000830152612fcd81612f91565b9050919050565b7f45524337323155524953746f726167653a2055524920736574206f66206e6f6e60008201527f6578697374656e7420746f6b656e000000000000000000000000000000000000602082015250565b6000613030602e83612177565b915061303b82612fd4565b604082019050919050565b6000602082019050818103600083015261305f81613023565b9050919050565b60008190508160005260206000209050919050565b60006020601f8301049050919050565b600082821b905092915050565b6000600883026130c87fffffffffffffffffffffffffffffffffffffffffffffffffffffffffffffffff8261308b565b6130d2868361308b565b95508019841693508086168417925050509392505050565b6000819050919050565b600061310f61310a6131058461221e565b6130ea565b61221e565b9050919050565b6000819050919050565b613129836130f4565b61313d61313582613116565b848454613098565b825550505050565b600090565b613152613145565b61315d818484613120565b505050565b5b818110156131815761317660008261314a565b600181019050613163565b5050565b601f8211156131c65761319781613066565b6131a08461307b565b810160208510156131af578190505b6131c36131bb8561307b565b830182613162565b50505b505050565b600082821c905092915050565b60006131e9600019846008026131cb565b1980831691505092915050565b600061320283836131d8565b9150826002028217905092915050565b61321b8261216c565b67ffffffffffffffff81111561323457613233612469565b5b61323e8254612799565b613249828285613185565b600060209050601f83116001811461327c576000841561326a578287015190505b61327485826131f6565b8655506132dc565b601f19841661328a86613066565b60005b828110156132b25784890151825560018201915060208501945060208101905061328d565b868310156132cf57848901516132cb601f8916826131d8565b8355505b6001600288020188555050505b505050505050565b600081519050919050565b600082825260208201905092915050565b600061330b826132e4565b61331581856132ef565b9350613325818560208601612188565b61332e816121b2565b840191505092915050565b600060808201905061334e60008301876122b3565b61335b60208301866122b3565b6133686040830185612349565b818103606083015261337a8184613300565b905095945050505050565b600081519050613394816120dd565b92915050565b6000602082840312156133b0576133af6120a7565b5b60006133be84828501613385565b91505092915050565b7f4e487b7100000000000000000000000000000000000000000000000000000000600052601260045260246000fdfea2646970667358221220ad0313c3fb7eb4ef54496ff5f51f2f0ce815a4b931d8a685350ef8ddaa186bad64736f6c63430008110033",
  "linkReferences": {},
  "deployedLinkReferences": {}
}